{
  "_format": "hh-sol-artifact-1",
  "contractName": "ORCARegistry",
  "sourceName": "contracts/ORCARegistry.sol",
  "abi": [
    {
      "inputs": [
        {
          "internalType": "address",
          "name": "initialOwner",
          "type": "address"
        }
      ],
      "stateMutability": "nonpayable",
      "type": "constructor"
    },
    {
      "anonymous": false,
      "inputs": [
        {
          "indexed": true,
          "internalType": "bytes32",
          "name": "did",
          "type": "bytes32"
        },
        {
          "indexed": true,
          "internalType": "address",
          "name": "vault",
          "type": "address"
        },
        {
          "indexed": false,
          "internalType": "enum ORCARegistry.AgentType",
          "name": "agentType",
          "type": "uint8"
        }
      ],
      "name": "AgentRegistered",
      "type": "event"
    },
    {
      "anonymous": false,
      "inputs": [
        {
          "indexed": true,
          "internalType": "bytes32",
          "name": "did",
          "type": "bytes32"
        },
        {
          "indexed": false,
          "internalType": "bool",
          "name": "active",
          "type": "bool"
        }
      ],
      "name": "AgentStatusUpdated",
      "type": "event"
    },
    {
      "anonymous": false,
      "inputs": [
        {
          "indexed": true,
          "internalType": "bytes32",
          "name": "did",
          "type": "bytes32"
        },
        {
          "indexed": true,
          "internalType": "address",
          "name": "previousVault",
          "type": "address"
        },
        {
          "indexed": true,
          "internalType": "address",
          "name": "newVault",
          "type": "address"
        }
      ],
      "name": "AgentVaultUpdated",
      "type": "event"
    },
    {
      "anonymous": false,
      "inputs": [
        {
          "indexed": true,
          "internalType": "uint256",
          "name": "epochId",
          "type": "uint256"
        },
        {
          "indexed": false,
          "internalType": "uint256",
          "name": "endedAt",
          "type": "uint256"
        }
      ],
      "name": "EpochEnded",
      "type": "event"
    },
    {
      "anonymous": false,
      "inputs": [
        {
          "indexed": true,
          "internalType": "uint256",
          "name": "epochId",
          "type": "uint256"
        },
        {
          "indexed": false,
          "internalType": "uint256",
          "name": "startedAt",
          "type": "uint256"
        }
      ],
      "name": "EpochStarted",
      "type": "event"
    },
    {
      "anonymous": false,
      "inputs": [
        {
          "indexed": true,
          "internalType": "address",
          "name": "previousOwner",
          "type": "address"
        },
        {
          "indexed": true,
          "internalType": "address",
          "name": "newOwner",
          "type": "address"
        }
      ],
      "name": "OwnershipTransferred",
      "type": "event"
    },
    {
      "anonymous": false,
      "inputs": [
        {
          "indexed": true,
          "internalType": "address",
          "name": "previousController",
          "type": "address"
        },
        {
          "indexed": true,
          "internalType": "address",
          "name": "newController",
          "type": "address"
        }
      ],
      "name": "TreasuryControllerUpdated",
      "type": "event"
    },
    {
      "inputs": [
        {
          "internalType": "bytes32",
          "name": "",
          "type": "bytes32"
        }
      ],
      "name": "agents",
      "outputs": [
        {
          "internalType": "address",
          "name": "vault",
          "type": "address"
        },
        {
          "internalType": "enum ORCARegistry.AgentType",
          "name": "agentType",
          "type": "uint8"
        },
        {
          "internalType": "bool",
          "name": "active",
          "type": "bool"
        },
        {
          "internalType": "uint256",
          "name": "registeredAt",
          "type": "uint256"
        },
        {
          "internalType": "uint256",
          "name": "updatedAt",
          "type": "uint256"
        }
      ],
      "stateMutability": "view",
      "type": "function"
    },
    {
      "inputs": [],
      "name": "currentEpochId",
      "outputs": [
        {
          "internalType": "uint256",
          "name": "",
          "type": "uint256"
        }
      ],
      "stateMutability": "view",
      "type": "function"
    },
    {
      "inputs": [
        {
          "internalType": "uint256",
          "name": "epochId",
          "type": "uint256"
        }
      ],
      "name": "endEpoch",
      "outputs": [],
      "stateMutability": "nonpayable",
      "type": "function"
    },
    {
      "inputs": [],
      "name": "epochActive",
      "outputs": [
        {
          "internalType": "bool",
          "name": "",
          "type": "bool"
        }
      ],
      "stateMutability": "view",
      "type": "function"
    },
    {
      "inputs": [
        {
          "internalType": "uint256",
          "name": "",
          "type": "uint256"
        }
      ],
      "name": "epochEndedAt",
      "outputs": [
        {
          "internalType": "uint256",
          "name": "",
          "type": "uint256"
        }
      ],
      "stateMutability": "view",
      "type": "function"
    },
    {
      "inputs": [
        {
          "internalType": "uint256",
          "name": "",
          "type": "uint256"
        }
      ],
      "name": "epochStartedAt",
      "outputs": [
        {
          "internalType": "uint256",
          "name": "",
          "type": "uint256"
        }
      ],
      "stateMutability": "view",
      "type": "function"
    },
    {
      "inputs": [
        {
          "internalType": "enum ORCARegistry.AgentType",
          "name": "agentType",
          "type": "uint8"
        }
      ],
      "name": "getAgentCountByType",
      "outputs": [
        {
          "internalType": "uint256",
          "name": "",
          "type": "uint256"
        }
      ],
      "stateMutability": "view",
      "type": "function"
    },
    {
      "inputs": [
        {
          "internalType": "enum ORCARegistry.AgentType",
          "name": "agentType",
          "type": "uint8"
        },
        {
          "internalType": "uint256",
          "name": "index",
          "type": "uint256"
        }
      ],
      "name": "getAgentDidByTypeAt",
      "outputs": [
        {
          "internalType": "bytes32",
          "name": "",
          "type": "bytes32"
        }
      ],
      "stateMutability": "view",
      "type": "function"
    },
    {
      "inputs": [
        {
          "internalType": "bytes32",
          "name": "did",
          "type": "bytes32"
        }
      ],
      "name": "getVaultForAgent",
      "outputs": [
        {
          "internalType": "address",
          "name": "",
          "type": "address"
        }
      ],
      "stateMutability": "view",
      "type": "function"
    },
    {
      "inputs": [
        {
          "internalType": "bytes32",
          "name": "did",
          "type": "bytes32"
        }
      ],
      "name": "isActiveAgent",
      "outputs": [
        {
          "internalType": "bool",
          "name": "",
          "type": "bool"
        }
      ],
      "stateMutability": "view",
      "type": "function"
    },
    {
      "inputs": [
        {
          "internalType": "bytes32",
          "name": "did",
          "type": "bytes32"
        }
      ],
      "name": "isRegisteredAgent",
      "outputs": [
        {
          "internalType": "bool",
          "name": "",
          "type": "bool"
        }
      ],
      "stateMutability": "view",
      "type": "function"
    },
    {
      "inputs": [],
      "name": "owner",
      "outputs": [
        {
          "internalType": "address",
          "name": "",
          "type": "address"
        }
      ],
      "stateMutability": "view",
      "type": "function"
    },
    {
      "inputs": [
        {
          "internalType": "bytes32",
          "name": "did",
          "type": "bytes32"
        },
        {
          "internalType": "address",
          "name": "vault",
          "type": "address"
        },
        {
          "internalType": "enum ORCARegistry.AgentType",
          "name": "agentType",
          "type": "uint8"
        }
      ],
      "name": "registerAgent",
      "outputs": [],
      "stateMutability": "nonpayable",
      "type": "function"
    },
    {
      "inputs": [
        {
          "internalType": "bytes32",
          "name": "did",
          "type": "bytes32"
        },
        {
          "internalType": "bool",
          "name": "active",
          "type": "bool"
        }
      ],
      "name": "setAgentStatus",
      "outputs": [],
      "stateMutability": "nonpayable",
      "type": "function"
    },
    {
      "inputs": [
        {
          "internalType": "bytes32",
          "name": "did",
          "type": "bytes32"
        },
        {
          "internalType": "address",
          "name": "newVault",
          "type": "address"
        }
      ],
      "name": "setAgentVault",
      "outputs": [],
      "stateMutability": "nonpayable",
      "type": "function"
    },
    {
      "inputs": [
        {
          "internalType": "address",
          "name": "newController",
          "type": "address"
        }
      ],
      "name": "setTreasuryController",
      "outputs": [],
      "stateMutability": "nonpayable",
      "type": "function"
    },
    {
      "inputs": [
        {
          "internalType": "uint256",
          "name": "epochId",
          "type": "uint256"
        }
      ],
      "name": "startEpoch",
      "outputs": [],
      "stateMutability": "nonpayable",
      "type": "function"
    },
    {
      "inputs": [
        {
          "internalType": "address",
          "name": "newOwner",
          "type": "address"
        }
      ],
      "name": "transferOwnership",
      "outputs": [],
      "stateMutability": "nonpayable",
      "type": "function"
    },
    {
      "inputs": [],
      "name": "treasuryController",
      "outputs": [
        {
          "internalType": "address",
          "name": "",
          "type": "address"
        }
      ],
      "stateMutability": "view",
      "type": "function"
    }
  ],
  "bytecode": "0x608060405234801561001057600080fd5b5060405161117a38038061117a83398101604081905261002f916100d9565b806001600160a01b03811661008a5760405162461bcd60e51b815260206004820152601360248201527f4f776e61626c653a207a65726f206f776e657200000000000000000000000000604482015260640160405180910390fd5b600080546001600160a01b0319166001600160a01b03831690811782556040519091907f8be0079c531659141344cd1fd0a4f28419497f9722a3daafe3b4186f6b6457e0908290a35050610109565b6000602082840312156100eb57600080fd5b81516001600160a01b038116811461010257600080fd5b9392505050565b611062806101186000396000f3fe608060405234801561001057600080fd5b50600436106101215760003560e01c806381a39a7b116100ad578063da42710a11610071578063da42710a146102eb578063dd359aaa146102fe578063e85c22a914610311578063eacdc5ff14610337578063f2fde38b1461034057600080fd5b806381a39a7b1461027f5780638da5cb5b14610292578063ad1a7633146102a5578063c0263783146102b8578063c99af349146102cb57600080fd5b8063429536fd116100f4578063429536fd1461020d5780636164e45d1461023157806363ba64b7146102465780636af59e16146102595780638049e8161461026c57600080fd5b80631820603c146101265780632bab25911461014c5780632e20ee181461016c5780632e31e72b146101cc575b600080fd5b610139610134366004610e33565b610353565b6040519081526020015b60405180910390f35b61013961015a366004610e5d565b60056020526000908152604090205481565b6101bb61017a366004610e5d565b60016020819052600091825260409091208054918101546002909101546001600160a01b0383169260ff600160a01b8204811693600160a81b909204169185565b604051610143959493929190610eae565b6101f56101da366004610e5d565b6000908152600160205260409020546001600160a01b031690565b6040516001600160a01b039091168152602001610143565b60045461022190600160a01b900460ff1681565b6040519015158152602001610143565b61024461023f366004610e5d565b610444565b005b610244610254366004610efe565b61058c565b610244610267366004610f2a565b6106df565b6004546101f5906001600160a01b031681565b61024461028d366004610f5f565b6107f0565b6000546101f5906001600160a01b031681565b6101396102b3366004610f7a565b6108a6565b6102446102c6366004610e5d565b6108e6565b6101396102d9366004610e5d565b60066020526000908152604090205481565b6102446102f9366004610f95565b610a44565b61022161030c366004610e5d565b610ced565b61022161031f366004610e5d565b60009081526001602081905260409091200154151590565b61013960035481565b61024461034e366004610f5f565b610d1e565b60006002600084600381111561036b5761036b610e76565b600381111561037c5761037c610e76565b815260208101919091526040016000205482106103ea5760405162461bcd60e51b815260206004820152602160248201527f4f52434152656769737472793a20696e646578206f7574206f6620626f756e646044820152607360f81b60648201526084015b60405180910390fd5b6002600084600381111561040057610400610e76565b600381111561041157610411610e76565b8152602001908152602001600020828154811061043057610430610fd1565b906000526020600020015490505b92915050565b6000546001600160a01b031633148061046757506004546001600160a01b031633145b6104835760405162461bcd60e51b81526004016103e190610fe7565b600454600160a01b900460ff166104dc5760405162461bcd60e51b815260206004820152601d60248201527f4f52434152656769737472793a206e6f206163746976652065706f636800000060448201526064016103e1565b600354811461052d5760405162461bcd60e51b815260206004820152601960248201527f4f52434152656769737472793a2077726f6e672065706f63680000000000000060448201526064016103e1565b6004805460ff60a01b19169055600081815260066020526040908190204290819055905182917f27bd0cff633fd950c11ae24bd614aa2d87d938a50d6b65573c3743be7a831f579161058191815260200190565b60405180910390a250565b6000546001600160a01b03163314806105af57506004546001600160a01b031633145b6105cb5760405162461bcd60e51b81526004016103e190610fe7565b6001600160a01b0381166106215760405162461bcd60e51b815260206004820152601c60248201527f4f52434152656769737472793a207661756c742072657175697265640000000060448201526064016103e1565b600082815260016020526040902080546001600160a01b03166106865760405162461bcd60e51b815260206004820152601b60248201527f4f52434152656769737472793a20756e6b6e6f776e206167656e74000000000060448201526064016103e1565b80546001600160a01b031981166001600160a01b038481169182178455426002850155604051921691829086907f54fffd59a5816e374a15d617864743fe8c126d3fca58ef208fc98ea62f8dfa7e90600090a450505050565b6000546001600160a01b031633148061070257506004546001600160a01b031633145b61071e5760405162461bcd60e51b81526004016103e190610fe7565b6000828152600160205260409020546001600160a01b03166107825760405162461bcd60e51b815260206004820152601b60248201527f4f52434152656769737472793a20756e6b6e6f776e206167656e74000000000060448201526064016103e1565b600082815260016020526040908190208054831515600160a81b0260ff60a81b19909116178155426002909101555182907fbfbf8af59fc76f3d976bc9a94c17cb535c4ab951ed2956913512e58143a13cf6906107e490841515815260200190565b60405180910390a25050565b6000546001600160a01b0316331461084a5760405162461bcd60e51b815260206004820152601c60248201527f4f776e61626c653a2063616c6c6572206973206e6f74206f776e65720000000060448201526064016103e1565b6004546040516001600160a01b038084169216907f48d00473e082aa539affed80c09b531ea144b5a42d5c24ca3ee3f1672397ec3190600090a3600480546001600160a01b0319166001600160a01b0392909216919091179055565b6000600260008360038111156108be576108be610e76565b60038111156108cf576108cf610e76565b815260208101919091526040016000205492915050565b6000546001600160a01b031633148061090957506004546001600160a01b031633145b6109255760405162461bcd60e51b81526004016103e190610fe7565b600454600160a01b900460ff161561098a5760405162461bcd60e51b815260206004820152602260248201527f4f52434152656769737472793a2065706f636820616c72656164792061637469604482015261766560f01b60648201526084016103e1565b60035481116109e55760405162461bcd60e51b815260206004820152602160248201527f4f52434152656769737472793a2065706f6368206d75737420696e63726561736044820152606560f81b60648201526084016103e1565b60038190556004805460ff60a01b1916600160a01b179055600081815260056020526040908190204290819055905182917f41787f1277821474072e18df95f0bd9ed9f117003aa97732ebbd737225b32b029161058191815260200190565b6000546001600160a01b0316331480610a6757506004546001600160a01b031633145b610a835760405162461bcd60e51b81526004016103e190610fe7565b82610ad05760405162461bcd60e51b815260206004820152601a60248201527f4f52434152656769737472793a2064696420726571756972656400000000000060448201526064016103e1565b6001600160a01b038216610b265760405162461bcd60e51b815260206004820152601c60248201527f4f52434152656769737472793a207661756c742072657175697265640000000060448201526064016103e1565b6000838152600160208190526040909120015415610b865760405162461bcd60e51b815260206004820181905260248201527f4f52434152656769737472793a20616c7265616479207265676973746572656460448201526064016103e1565b6040518060a00160405280836001600160a01b03168152602001826003811115610bb257610bb2610e76565b8152600160208083018290524260408085018290526060909401526000878152918152919020825181546001600160a01b039091166001600160a01b031982168117835592840151919283916001600160a81b03191617600160a01b836003811115610c2057610c20610e76565b021790555060408201518154901515600160a81b0260ff60a81b19909116178155606082015160018201556080909101516002918201556000826003811115610c6b57610c6b610e76565b6003811115610c7c57610c7c610e76565b8152602080820192909252604090810160009081208054600181018255908252929020909101849055516001600160a01b0383169084907f1d41e5ddb6df487c2e55875dc9226fe6db7635676fc2aea2188c0460eaeebe5090610ce090859061101e565b60405180910390a3505050565b600081815260016020819052604082209081015415801590610d1757508054600160a81b900460ff165b9392505050565b6000546001600160a01b03163314610d785760405162461bcd60e51b815260206004820152601c60248201527f4f776e61626c653a2063616c6c6572206973206e6f74206f776e65720000000060448201526064016103e1565b6001600160a01b038116610dc45760405162461bcd60e51b815260206004820152601360248201527227bbb730b136329d103d32b9379037bbb732b960691b60448201526064016103e1565b600080546040516001600160a01b03808516939216917f8be0079c531659141344cd1fd0a4f28419497f9722a3daafe3b4186f6b6457e091a3600080546001600160a01b0319166001600160a01b0392909216919091179055565b803560048110610e2e57600080fd5b919050565b60008060408385031215610e4657600080fd5b610e4f83610e1f565b946020939093013593505050565b600060208284031215610e6f57600080fd5b5035919050565b634e487b7160e01b600052602160045260246000fd5b60048110610eaa57634e487b7160e01b600052602160045260246000fd5b9052565b6001600160a01b038616815260a08101610ecb6020830187610e8c565b9315156040820152606081019290925260809091015292915050565b80356001600160a01b0381168114610e2e57600080fd5b60008060408385031215610f1157600080fd5b82359150610f2160208401610ee7565b90509250929050565b60008060408385031215610f3d57600080fd5b8235915060208301358015158114610f5457600080fd5b809150509250929050565b600060208284031215610f7157600080fd5b610d1782610ee7565b600060208284031215610f8c57600080fd5b610d1782610e1f565b600080600060608486031215610faa57600080fd5b83359250610fba60208501610ee7565b9150610fc860408501610e1f565b90509250925092565b634e487b7160e01b600052603260045260246000fd5b6020808252601a908201527f4f52434152656769737472793a20756e617574686f72697a6564000000000000604082015260600190565b6020810161043e8284610e8c56fea26469706673582212209de8ae5ef65164b641bd13d787bde2df5cded9227352bd6bc2a3c627e33ef98164736f6c63430008180033",
  "linkReferences": {},
  "deployedLinkReferences": {}
}